:020000040800F2
:1000000078170020A90500089D0500089F05000835
:10001000A1050008A3050008A505000800000000D0
:10002000000000000000000000000000BB05000808
:10003000A705000800000000BF050008C105000872
:10004000C3050008C3050008C3050008C305000870
:10005000C3050008C3050008C3050008C305000860
:10006000C3050008C3050008C3050008C305000850
:10007000C3050008C3050008C3050008C305000840
:10008000C3050008C3050008C3050008C305000830
:10009000C3050008C3050008C3050008C305000820
:1000A000C3050008C3050008C3050008C305000810
:1000B000C3050008C3050008C3050008C305000800
:1000C000C3050008C3050008C3050008C3050008F0
:1000D000C3050008C3050008C305000895190008FA
:1000E000C3050008C3050008C3050008C3050008D0
:1000F000C3050008C3050008C3050008C3050008C0
:10010000C3050008C3050008C3050008C3050008AF
:1001100063190008C3050008C3050008C3050008EB
:10012000C3050008C3050008C3050008C30500088F
:10013000C3050008C3050008C3050008C30500087F
:10014000C3050008C3050008C3050008C30500086F
:10015000C3050008C3050008C3050008C30500085F
:10016000C3050008C3050008C3050008C30500084F
:10017000C3050008C3050008C3050008C30500083F
:10018000C3050008C305000800F002F800F03CF8C1
:100190000AA090E8000C82448344AAF10107DA45E2
:1001A00001D100F031F8AFF2090EBAE80F0013F0F8
:1001B000010F18BFFB1A43F001031847103200006B
:1001C00030320000103A24BF78C878C1FAD85207FC
:1001D00024BF30C830C144BF04680C6070470000C1
:1001E0000023002400250026103A28BF78C1FBD840
:1001F000520728BF30C148BF0B6070471FB502F0DF
:10020000EDFA1FBD10B510BD02F0A2FA1146FFF7BE
:10021000F5FF00F009F802F0D4FA03B4FFF7F2FF9B
:1002200003BC00F0B7FF000008B54FF4A06000F079
:10023000DBF9002001F083F96B4D18B9288840F0F4
:100240000800288001F0F0FB01F00EFC01F028FC12
:1002500002F072F8654ED6F8140218B9288840F0FA
:100260000800288000F0CBFF614800900623802220
:100270000321002002F006F94FF46134204601F01A
:1002800008FA204601F098F94FF4FA7001F036FCB4
:1002900058A002F01FFA012001F030FC2146564818
:1002A00002F025F90128F6D1544C204600F0BFFF9A
:1002B000401C1AD1204601F047F800F0FEFFA0B91B
:1002C0004F48009001226946204601F077F860B956
:1002D0000121002001F0D9F838B9002001F02FF9F0
:1002E000012802D1474800F0FDFE01F0B7FB464C63
:1002F000E060012001F002FCEE2001F015FC01F0AD
:10030000ADFBDFF808A1DFF8088107464FF47A7BE0
:10031000B146A078012806D1D8F8100218B928886B
:1003200040F008002880D8F810024646A07001F07E
:1003300089FC01F093FBE168411A51450AD92888EC
:10034000010707D440F002002880C00702D12D48E1
:1003500000F0C8FE01F082FBC11BB1FBFBF0A188DD
:10036000884209D301F07AFB0746D6F8980238B1E3
:100370005FF00000C6F89802D9F8140210B104E04A
:100380000120F7E70020C6F89802224800780028EC
:10039000BFD194ED020A2048B8EE401A90ED000A51
:1003A000B8EE400AC1EE000A9FED1C0A20EE800A5A
:1003B000BCEEC00A10EE100AC0B220706678B042DF
:1003C0000FD0FF20009009E00021304602F03CF8F9
:1003D0000121009801F056FE761CF6B22078864284
:1003E000F2D3607095E70000560000200000414203
:1003F0004A3200080D0A00006400002000C0000816
:100400005AA55AA5000001080000002007A5070012
:10041000000042423C000020600000200000004339
:100420000CB500205449019000900A6842F48032D3
:100430000A604FF4A0430A6802F400320092019A65
:10044000521C0192009A12B9019A9A42F3D10A6899
:10045000920334D50120009047484030026842F0B2
:10046000805202604548026842F4404202604248BD
:10047000083002680260026842F4004202600268CA
:1004800042F4A0520260031F3D4A1A600A6842F01B
:1004900080720A600A689201FCD53A4A40F20571FE
:1004A0001160016821F003010160016841F002015F
:1004B00001600168C1F381010229FAD10CBD0090ED
:1004C0000CBD314810B5016841F4700101602A4843
:1004D000016841F001010160274A002108321160E2
:1004E00002682A4B1A400260031D294A1A600268FA
:1004F00022F48022026020480C300160FFF790FF58
:1005000021494FF000608039086010BD70B51A4C69
:10051000083420681F4A10F00C011F4804D0551001
:10052000042903D0082903D002601BE0056019E00C
:100530001149091D0B68C3F380560B6803F03F0394
:1005400016B1B5FBF3F201E0B2FBF3F20B680968F8
:10055000C3F388135A43C1F30141491C4900B2FB5C
:10056000F1F1016021680C4AC1F30311121D515CC5
:100570000268CA40026070BD00380240007000404E
:1005800008544007003C024088ED00E0FFFFF6FE03
:10059000103000240024F400140000207047FEE70F
:1005A000FEE7FEE7FEE77047094880470948004735
:1005B000FEE7FEE7FEE7FEE7FEE7FEE7FEE7FEE713
:1005C000FEE7FEE704480549054A064B7047000070
:1005D000C304000889010008781100207817002062
:1005E0007813002078130020284908432849086020
:1005F000704730B50F22C47801780123FCB1244C38
:10060000246801F1E02104F4E064C4F5E064C4F37B
:100610000724C4F10405E2404478AC4085781540D5
:1006200025432A0181F80024007800F01F018B4047
:100630004009800000F1E020C0F8003130BD01F039
:100640001F0083404809800000F1E020C0F880319D
:1006500030BD104A114001430D48001F0160704732
:100660000B4A121D0029116801D0014300E08143AB
:10067000116070474FF0E0210428086903D020F092
:1006800004000861704740F00400FAE70000FA0532
:100690000CED00E080FFFF1F824910B5884206D1B3
:1006A0000121084600F0AFFA002101205BE07E49FD
:1006B000884206D10121022000F0A5FA0021022083
:1006C00051E07A49884206D10121042000F09BFACA
:1006D0000021042047E07649884206D10121082004
:1006E00000F091FA002108203DE07249884206D1CD
:1006F0000121102000F087FA0021102033E06E491C
:10070000884206D10121202000F07DFA002120201E
:1007100029E06A49884206D10121402000F073FA9D
:10072000002140201FE06649884206D10121802037
:1007300000F069FA0021802015E06249884202D168
:10074000012184150AE06049884202D10121441543
:1007500004E05E4988420AD101210415204600F0D8
:1007600052FA00212046BDE8104000F04CBA10BDFE
:10077000F0B50023012403270D6804FA03F21540A5
:10078000954242D1D0F800C05E0007FA06F52CEA87
:10079000050CC0F800C091F804C0D0F800E00CFAD5
:1007A00006FC4CEA0E0CC0F800C091F804C0BCF185
:1007B000010F02D0BCF1020F1FD1D0F808C02CEA03
:1007C000050CC0F808C091F805C0D0F808E00CFA94
:1007D00006FC4CEA0E0CC0F808C0D0F804C02CEAA5
:1007E000020CC0F804C0426891F806C00CFA03FC81
:1007F0001FFA8CFC42EA0C024260C268AA43C26043
:10080000CA79C568B2402A43C2605B1C102BB3D3BF
:10081000F0BD4FF6FF7101600021017141718171DE
:10082000C171704708B541F480320092C261C16164
:100830000099C161C169C069009008BD02460020ED
:1008400012690A4200D001207047006980B27047E7
:100850000246002052690A4200D0012070474069D8
:1008600080B2704701837047418370470AB10183AA
:100870007047418370474161704742694A40426115
:1008800070474B07DB0E9A40C90810B500EB81009A
:10089000016A0F249C40A1430162016A1143016275
:1008A00010BD0000000002400004024000080240A9
:1008B000000C0240001002400014024000180240E8
:1008C000001C024000200240002402400028024098
:1008D000F848016841F001010160F64A0021083240
:1008E00011600268F44B1A400260031DF34A1A605B
:1008F000F04BF34A84331A60F04A103A1B1D1A6019
:10090000026822F480220260EA480C300160181D5F
:1009100001607047E7490022891C0A70087070471F
:1009200002460020510901290CD002290CD0E149CE
:100930007431096802F01F02012393400B4200D07A
:1009400001207047DB49F4E7DA497031F1E718B567
:1009500000204FF4A04400903120FFF7E1FF009900
:10096000491C0091A14201D00028F5D03120FFF7A9
:10097000D7FF002800D0012018BDCE490A6822F018
:10098000F80242EAC00008607047CE49086070472C
:10099000C849002270310A700A70012802D0042868
:1009A00001D1052008707047C7490860704741EAC7
:1009B00082115A0810B5C54B029C03EB0242114349
:1009C000014341EA0460BB49091D086010BDBD49EF
:1009D00008667047800140EA0170B64984310860BA
:1009E0007047B84988667047800140EA0160B149A4
:1009F00040EA0270883108607047B2490867704762
:100A0000B049C8647047AB4A08321368084323F002
:100A1000EC63184310607047A64A08321368084315
:100A200023F07843184310607047A24A08321168D7
:100A300021F003010143116070479E4808300068AF
:100A400000F00C0070479B4A0832116821F0F00159
:100A5000014311607047974A0832116821F4E05150
:100A6000014311607047934908310A6822F46042DB
:100A700042EAC0000860704770B58E4A08321168BB
:100A8000934C11F00C0104D06610042903D00829FE
:100A900003D004601BE0066019E08649091D0B685D
:100AA000C3F380550B6803F03F0315B1B6FBF3F3B6
:100AB00001E0B4FBF3F30C680968C4F388146343E2
:100AC000C1F30141491C4900B3FBF1F10160116818
:100AD0000F2303EA11117F4B5C5C0168E140416028
:100AE0001468072505EA94241C5D21FA04F4846047
:100AF000126805EA52329A5CD140C16070BDC0F301
:100B00000121032908D16B4A0832116821F4F81336
:100B10007149014019431160664970310A68C0F398
:100B20000B0002430A607047674944390860704708
:100B300065494039086070476249C1F85C017047F7
:100B40005C4A8C321168401E21F01F010143116084
:100B5000704758498C310A686FF0FF0322F4F8524D
:100B600003EB0020104308607047524A8C32116832
:100B700021F440110143116070474E4A8C321168D4
:100B800021F440010143116070474A4A8C321168D8
:100B900021F440310143116070475049C1F8E00130
:100BA0007047444A30320029116801D0014300E007
:100BB0008143116070473F4A34320029116801D0E7
:100BC000014300E08143116070473A4A38320029FE
:100BD000116801D0014300E0814311607047354A3C
:100BE00040320029116801D0014300E081431160C7
:100BF0007047304A44320029116801D0014300E0B7
:100C00008143116070472B4A10320029116801D0CE
:100C1000014300E0814311607047264A14320029E5
:100C2000116801D0014300E0814311607047214AFF
:100C300018320029116801D0014300E0814311609E
:100C400070471C4A20320029116801D0014300E09E
:100C5000814311607047174A24320029116801D07E
:100C6000014300E0814311607047124A503200296D
:100C7000116801D0014300E08143116070470D4AC3
:100C800054320029116801D0014300E08143116012
:100C90007047084A58320029116801D0014300E02A
:100CA000814311607047034A60320029116817D0F0
:100CB000014316E000380240FFFFF6EA103000243E
:100CC0000030002000004742800E47420000FFFF36
:100CD0000024F40028000020FFFCFF0F0010474212
:100CE000814311607047194A0029116801D00143FE
:100CF00000E081431160704714490C3101280868F5
:100D000003D020F008000860704740F00800FAE7C0
:100D10000E4A573A0029117801D0014300E081437F
:100D20001170704709481030016841F0807101600E
:100D300070470146054A0020583A12680A4200D01E
:100D400001207047014956390870704764380240E5
:100D5000CD4910B5884206D101211020FFF77BFF55
:100D60000021102020E0C949884202D101214C0411
:100D700029E0C749884202D101218C0423E0C549FA
:100D8000884202D10121CC041DE0C349884202D12E
:100D900001210C0517E0C149884209D10121202019
:100DA000FFF759FF00212020BDE81040FFF753BF97
:100DB000BB49884202D101218C0704E0B94988422D
:100DC0000AD1012144052046FFF73BFF2046BDE83C
:100DD00010400021FFF735BF10BD7FB50446008AE3
:100DE0000D4620F44051E88808432082A08941F252
:100DF0000C618843A9882A8911436A8902431143F7
:100E0000A181A08A20F44071A8890843A082684685
:100E1000FFF732FE9C48844202D0A048844201D1B0
:100E2000039800E00298A189090400EBC00101EBDE
:100E30000010296801D5490000E08900B0FBF1F2FB
:100E40006420B2FBF0F109010B096FF018056B4348
:100E500002EB8302A3891D044FF0320306D503EB96
:100E6000C202B2FBF0F000F0070005E003EB021253
:100E7000B2FBF0F000F00F00084320817FBD4FF47B
:100E80001651016000218180C18001810C224281C4
:100E90008181704710B5028A4C8822F470630A88F9
:100EA00022438C88C9880C4322431A43028210BD16
:100EB0000021018041808180C180704700298189A3
:100EC00002D041F4005101E021F4005181817047CA
:100ED000028B02F47F420283028B0A430283704733
:100EE0000029818902D041F4004101E0C1F30E01E3
:100EF000818170470029818A02D041F4006101E0BC
:100F000021F4006181827047C1F30801818070473C
:100F10008088C0F308007047028A22F00F02028224
:100F2000028A0A43028270470029818902D041F077
:100F3000020101E021F0020181817047828922F4DF
:100F40000062828182890A4382817047028A22F08C
:100F500020020282028A0A43028270470029018A23
:100F600002D041F4804101E021F4804101827047C8
:100F7000818941F00101818170470029818A02D075
:100F800041F0080101E021F0080181827047028BE5
:100F9000D2B20283028B42EA012101837047002909
:100FA000818A02D041F0200101E021F020018182FC
:100FB00070470029818A02D041F0100101E021F040
:100FC000100181827047828A22F004028282828A22
:100FD0000A43828270470029818A02D041F00201CF
:100FE00001E021F0020181827047002A828A01D04B
:100FF0000A4300E08A438282704710B5C1F342136E
:1010000001F01F040121A140012B07D0022B07D0C2
:101010001430002A026805D00A4304E00C30F8E7D7
:101020001030F6E78A43026010BD024600201288A5
:101030000A4200D001207047C9430180704730B593
:1010400001F01F0201240025C1F3421304FA02F249
:10105000012B0FD0022B0FD0838A4FEA1121008879
:10106000134204FA01F400EA040001D000B10125A2
:10107000284630BD8389F0E7038AEEE70A0A01219A
:101080009140C94301807047001001400044004076
:1010900000480040004C0040005000400014014057
:1010A00000780040007C004010B53248FFF750FE49
:1010B0003148FFF74DFE3148FFF7EEFA2F48FFF7B2
:1010C000EBFA2F48FFF7E8FA2C48FFF7E5FA2C482F
:1010D000FFF7E2FA2B48FFF7DFFA00F0B2FCFFF768
:1010E000F7FB10BD70B504462068B0F1005F36D341
:1010F00025492068884232D8FFF7D6FF202000F02B
:101100002FF8012080F3108800BF00F02DF8002098
:1011100009E04FF0FF321D4941F820201C4941F8F9
:101120002020411CC8B20828F3DB002000F018F88A
:10113000002080F3108800BF00F016F86568206872
:1011400080F3088800BF206880F3098800BF002072
:1011500080F3148800BFBFF36F8FA84700BF70BD36
:10116000C1B281F31188704700F0010181F3138847
:101170007047000000480040004C0040000802405A
:1011800000100240000C0240FFFF022080E100E05E
:1011900080E200E0704704490A885206FCD5024A02
:1011A000C1B2121D11807047004C0040EF4800682A
:1011B00000F0004028B1EE48EC490C390860ED48D9
:1011C00008607047E948001D006800F0010028B180
:1011D000E948E64908390860E84808607047E3488C
:1011E000006840F00040E14908607047DF48001D9A
:1011F000006840F00100DD49091D0860704770B5C6
:10120000FFF7D4FFD9481038056825F0070545F0E9
:1012100005050560022000F071FCD448046824F440
:10122000407444F400740460FFF7D9FF70BD0146B8
:101230000868704730B503460C461546002200BFCB
:1012400007E01846FFF7F3FF44F822001B1D501C6F
:10125000C2B2AA42F5DB30BD002200210020C34B00
:101260001B1F1A6802F0100313B14B1CD9B20520E2
:1012700002F0400313B14B1CD9B2062002F08003E8
:1012800013B14B1CD9B2072002F4803313B14B1CAD
:10129000D9B20120012900DD0220704710B50446B3
:1012A00000BFFFF7D9FF012800D002E0641E002C28
:1012B000F7D100BF04B9082010BD70B504464FF047
:1012C000FF30FFF7EBFF054615BBFFF76FFFA748A1
:1012D000006820F0F800A54908600846006840EA68
:1012E000C40008600846006820F00700086008464F
:1012F000006840F0020008600846006840F4803052
:1013000008604FF0FF30FFF7C9FF0546FFF767FFA2
:10131000284670BD70B504460D469948FFF7BEFFDC
:1013200006467EB99148006820F007008F490860A2
:101330000846006840F00100086025609048FFF70B
:10134000ADFF0646304670BD01468E48814201D24F
:10135000002070478C48814201D20120F9E78B4878
:10136000814201D20220F4E78948814201D2032060
:10137000EFE78848814201D20420EAE786488142AB
:1013800001D20520E5E78548814201D20620E0E749
:101390008348814201D20720DBE78248814201D2A3
:1013A0000820D6E78048814201D20920D1E77F4852
:1013B000814201D20A20CCE70B20CAE72DE9F04197
:1013C00004460D4617460026B046B4F1006F06D31A
:1013D0007348401E844202D804F0030018B1092665
:1013E0003046BDE8F08104EB87086D48401E80451B
:1013F00002D90A263046F4E7FFF7D8FE5B481038DA
:10140000006820F4007059491039086008460068E7
:1014100020F4806008600846006840F400600860BE
:101420000846006840F48050086072B64FF6FF70BE
:10143000FFF734FF064666B908E020462968FFF743
:1014400069FF064606B103E0241D2D1D4445F4D373
:1014500000BF46481038006840F400704349103916
:1014600008600846006840F480600860084600682C
:1014700020F4006008600846006820F4805008608E
:10148000FFF7ADFE62B63046ABE72DE9F041054609
:101490000E4600274248401EFFF756FFA84203DAD7
:1014A0000B273846BDE8F0814FF6FF70FFF7F6FED8
:1014B0000746E7BBFFF786FE0B2D17DC05F1100092
:1014C000C4B24EB12948001D00680121A1408843E3
:1014D0002649091D08601FE02448001D00680121FD
:1014E000A14008432149091D086015E0281DC4B228
:1014F0004EB11E48083000680121A14088431B49B5
:101500000831086008E01948083001680120A0404F
:1015100001431648083001601448001D006840F07F
:1015200002001249091D08604FF6FF7000E004E058
:10153000FFF7B4FE0746FFF759FE3846B2E700B59D
:1015400002460B2A04DC1A48FFF771FE83B206E05C
:101550001848FFF76CFE83B2A2F10C00C2B243FA46
:1015600002F000F0010080F0010000BD103C0240DC
:1015700023016745AB89EFCD3B2A19087F6E5D4C8F
:10158000FFFF0F00004000080080000800C00008B6
:10159000000001080000020800000408000006081E
:1015A0000000080800000A0800000C0800000E08EF
:1015B00008C0FF1F08C0FE1F2DE9F0418046FC480F
:1015C00088B00024047001210420FFF7EAFA012109
:1015D0000420FFF7E6FA0121C804FFF700FBF54FEE
:1015E00008220A213846FFF74CF908220B21384619
:1015F000FFF747F902258DF8045038158DF806409D
:1016000000908DF8055001268DF807606946384630
:10161000FFF7AEF88DF80450A8028DF80640009050
:101620008DF805508DF8076069463846FFF7A0F839
:1016300034208DF818008DF819508DF81A508DF857
:101640001B6006A8FEF7D5FFADF80C40ADF80E40C4
:10165000ADF81040ADF814400C20D74CADF8120096
:10166000CDF8088002A92046FFF7B7FB012240F21F
:1016700025512046FFF7C1FC012240F224412046BB
:10168000FFF7BBFC01212046FFF718FC08B0BDE8BE
:10169000F0812DE9F0418046C54888B000240470EF
:1016A00001210220FFF77DFA01210220FFF779FADC
:1016B00001218804FFF793FAC04F07220A21384618
:1016C000FFF7DFF807220B213846FFF7DAF802258B
:1016D0008DF8045038158DF8064000908DF80550AF
:1016E00001268DF8076069463846FFF741F88DF806
:1016F0000450A8028DF8064000908DF805508DF832
:10170000076069463846FFF733F827208DF8180040
:101710008DF819508DF81A508DF81B6006A8FEF749
:1017200068FFADF80C40ADF80E40ADF81040ADF8D4
:1017300014400C20A24CADF81200CDF8088002A98C
:101740002046FFF74AFB012240F225512046FFF7D1
:1017500054FC012240F224412046FFF74EFC0121B7
:101760002046FFF7ABFB91E70422831813F8013CF6
:101770008354521E12F0FF02F7D10170704700220D
:10178000134602E08354521CD2B28A42FAD3704705
:101790002DE9F04F8B4A8C49002494800C608B49D2
:1017A00002F10C030D781E78012D0DD1CB7A0A2B96
:1017B00004D24D1C5855CB7A5B1CCB720D2E03D135
:1017C0000A2801D102230B707E49814B784DC988CC
:1017D0004FF0010A03EB0109491C8FB2794995F8D2
:1017E00000C00C314FF0050B49784FF0040EBCF1EE
:1017F000070F47D2DFE80CF00455478970637D007E
:1018000062290CD0722914D06E4F0C3703293F780F
:10181000074417D002291DD0012923D024E06F2EC0
:1018200022D16F2820D119705E70987085F800A0C1
:1018300025E0652E18D1732816D119705E70987046
:1018400002211BE0FF2F0FD119705E70987085F890
:1018500000B014E0FF2F07D119705E70987085F802
:1018600000E00CE0FF2F02D0042805D007E019703B
:101870005E709870062101E0187003212970547081
:101880009470D4805BE051780B44491CC9B2D87085
:101890005170022953D1547082F800A0C2F808B0E8
:1018A00031E091780B44491CC9B2D870917001297C
:1018B00045D1947082F800A0C2F808E023E089F8CE
:1018C0000300A7F50061D780023938D1D48082F8AF
:1018D00000A040F6050115E089F80300A7F5806136
:1018E000D78002392BD1D48082F800A040F2054184
:1018F00008E089F80300D780822F20D1D48082F8B5
:1019000000A0852191602C7019E0FB2817D10329D4
:1019100004D0022908D001290CD010E019705E70A3
:10192000987085F800B00AE019705E70987085F8BC
:1019300000E004E019705E70987006212970BDE81F
:10194000F04F01461F480C300EE71949087803286C
:1019500006D11C48002201238280037083600A7034
:10196000704770B5144C20212046FFF75EFB251D03
:1019700020B12888BDE87040C0B209E71021204698
:10198000FFF753FB002804D020882888BDE870406A
:10199000DBE770BD70B50A4C20212046FFF745FB00
:1019A000251DB8B12888BDE87040C0B2F0E600003F
:1019B0001000002000080240004C004000040240DB
:1019C000004800403C0000205C000020081100207E
:1019D0007000002010212046FFF727FB002804D0CC
:1019E00020882888BDE87040AFE770BD70B5034619
:1019F000002041F221044FF6FF7510E01A7880EACA
:101A000002200022060403D584EA400080B201E0EF
:101A100005EA4000521CD2B2082AF3D35B1C491ECF
:101A200089B2EBD270BD00003048016841F080718E
:101A300001602F4800214160016841F0010101600F
:101A400070472B48016821F00101016000214160CD
:101A50002648016821F08071016070472448A82160
:101A60004068B0FBF1F070471CB501211020FFF772
:101A700098F84020009001208DF8040000218DF896
:101A8000061003218DF805101A4C8DF807006946E1
:101A90002046FEF76DFE40212046FEF7E3FE1CBD0A
:101AA0007CB501210420FFF77CF8002420208DF86C
:101AB0000440032500908DF8055001268DF807603D
:101AC00069460D48FEF754FE01211020FFF769F822
:101AD00010208DF8044000908DF805508DF80760B7
:101AE00069460448FEF744FE7CBD0000FCED00E0C2
:101AF000001000E000100240000802402DE9F04113
:101B00000546FFF7ABFFFC4F04464FF47A7600BF63
:101B1000FFF7A4FFA04200D23844001BB0FBF6F050
:101B2000A842F5D3BDE8F081F4490880F449088063
:101B300070472DE9F041002203E0835C1BB1521C89
:101B400092B28A42F9D3312A04D90120FFF7D6FF95
:101B5000772074E00021EB4B03E0445C5C54491CAB
:101B6000C9B29142F9D3521CE64D91B2CBB2323593
:101B700003E0CC1A491C2A5589B2425C002AF8D1EC
:101B8000E14C0020CF1A22691AE000BF391A491E21
:101B90000E044FF00A0C360C4FF0010301D0002167
:101BA00006E0012306E000BF491C03FB0CF389B2E9
:101BB000B142F9D3295C303901FB0322401CC0B289
:101BC0008742E3DCD14DD24950192261884213D8B3
:101BD00092B12846FFF7B8FB064620692844FFF774
:101BE000B3FB074600210846FFF74FFC68B1012010
:101BF000FFF784FF552022E00120FFF77FFF2069D7
:101C000008B166201BE0992019E035460AE0002162
:101C10002846FFF73AFC2846FFF74FFB207118B91A
:101C20006D1CEDB2BD42F2D9BD424FF0010003D8A8
:101C3000FFF764FF882002E0FFF760FF0620BDE8A1
:101C4000F04171E72DE9F843B24B0026DFF8C88276
:101C50001878AD4FB14A03280DD0E0B1F968B04C07
:101C6000491CF960A14216D30220FE601070C8F82A
:101C700000601E7014E0AB4841F288340188491CB2
:101C800089B20180A14206D9068001201070C8F8EF
:101C900000001E7010E0107801280DD002287DD1C0
:101CA00016700120FFF72AFF05219F48FFF767FD07
:101CB000BDE8F843152037E7167005219A48FFF76D
:101CC0005EFD9A4D287862284CD168786F285CD1E7
:101CD000A8786F2859D1E878742856D1D8F8000030
:101CE000042852D1F98841F00401F9808A0708D408
:101CF00041F00101F9800120FFF700FF4320FFF7C9
:101D000013FF8BA22821002000F0F7FA00F0DAF987
:101D100000F043FA89480090082380220521002022
:101D200000F0B0FB0021084600F08EFB0121FF20EF
:101D300000F0A8F900217F2000F086FB0121FF20A0
:101D400000F0A0F901240021204600F07DFB0121D4
:101D5000812000F097F9641CE4B27F2CF3D378491A
:101D600064200880287872280FD1687865280CD103
:101D7000A878732809D1E878652806D128797428CD
:101D800003D1D8F80000052812D0F8883C46C107D6
:101D90000DD029786B4FDFF8B09100E05BE10129AD
:101DA0000BD002295ED003297ED004297DD048E1E2
:101DB000F98841F00401F9803EE1D8F80010852946
:101DC000F5D140F00400E0808021E81CFFF70EFE12
:101DD000B5F8831049BA884268D1687818B30321EE
:101DE0004A4668186B5CC67843EA06638678407892
:101DF000360446EA00200343C81EC61700EB96705F
:101E000020F00300091DC9B283508329E9D32022A1
:101E10004D49A068FFF7D2FA207148B10120FFF7C1
:101E20006DFE552093E08021E81CFFF782FE08E15B
:101E3000386880303860A0688030A0600120FFF7EB
:101E40005DFE83E0A178491CA17000E0A67060707F
:101E50000120FFF753FEA0780A2801D9AA2076E0D6
:101E6000152074E0D8F80010A1F58062053A42D13F
:101E700040F00400E0804FF48061E81CFFF7B6FDFD
:101E8000B5F8031449BA884210D1032040F2034345
:101E90004A4629182E5C91F803C046EA0C6691F870
:101EA00002C04FEA0C4C02E054E0A0E098E0497810
:101EB0004CEA01210E43C11E4FEAE17C01EB9C710B
:101EC00021F00301001D80B28E509842E1D34FF4FF
:101ED00080721D49A068FFF771FA207100289DD11A
:101EE000386800F5806038600120FFF707FEA068C1
:101EF00000F5806072E089E061188601044C0040C2
:101F000004480040A40C00205000002000000108FC
:101F1000FFFF070810000020440000203C000020C4
:101F2000E0930400400000204800002070000020E2
:101F300050726F67726573733A0000004A3200088E
:101F40000400002008000020A40800200620FFF75D
:101F5000EBFD76E0D8F80010A1F50062053A70D1EB
:101F600040F00400E0804FF40061E81CFFF73EFD04
:101F7000B5F8031849BA884232D103204A4640F6E0
:101F8000030629182B5C91F803C043EA0C6391F80F
:101F900002C049784FEA0C4C4CEA01210B43C11EA8
:101FA0004FEAE17C01EB9C7121F00301001D80B23E
:101FB0008B50B042E5D34FF400722E49A068FFF772
:101FC000FDF9207100288AD10120FFF797FD3868BC
:101FD00000F500603860A06800F50060A060B5E71B
:101FE00068782070617888427FF430AF2AE7D8F8AB
:101FF0000010012925D140F00400E080E078401C69
:10200000C0B2E070012802D0022804D019E00120FB
:10201000FFF774FD24E70120FFF770FDE67006204E
:10202000FFF782FD01210020FFF72FFA48B90020B9
:10203000FFF785FA012801D000F00FF80E48FFF7EE
:1020400051F8E088410703D40120FFF757FD2FE640
:1020500020F00400E080BDE8F883BFF34F8F07480D
:102060000168074A01F4E06111430160BFF34F8F3B
:10207000FEE70000A4080020000001080CED00E0CD
:102080000400FA0530B50023F94A012411B1C2F861
:10209000904201E0C2F890325FF00001C2F89C3239
:1020A000050602D5C2F8984201E0C2F89832C2F89B
:1020B0009C424006491C000EC9B20829EED3C2F862
:1020C000904230BD70B5EB4E002400BF04F1B0006B
:1020D000C0B20021FFF7D6FF00210846FFF7D2FF6C
:1020E00000211020FFF7CEFF5FF0000506EBC500D2
:1020F0000121005DFFF7C6FF6D1CEDB2802DF5D309
:10210000641CE4B2082CE1D370BD30B50021B020CE
:10211000FFF7B8FF00210846FFF7B4FF00211020A9
:10212000FFF7B0FFD34D0024012115F83400FFF76D
:10213000A9FF641CE4B2802CF6D330BD00B50021A9
:102140008D20FFF79FFF00211420FFF79BFF002148
:10215000AF205DF804EB95E700B500218D20FFF777
:1021600091FF00211020FFF78DFF0021AE205DF8C8
:1021700004EB87E710B40021BE4B0A465FF0000075
:1021800003EBC004401CC0B262548028F8D3491C41
:10219000C9B20829F2D310BC94E710B50021B54BA1
:1021A0000A46002003EBC004401CC0B262548028E1
:1021B000F8D3491CC9B20829F3D310BD10B57F2844
:1021C00016D83F2914D80723A3EBD10301F0070148
:1021D000C1F107040121A140A64CDBB204EBC00011
:1021E000002AC25CC9B201D00A4300E08A43C2544B
:1021F00010BD2DE9F04F203A9C460C468346884698
:1022000002F0FF090025DDF824A02FE0BCF10C0F3F
:1022100008D0994901EB09100027465D300607D523
:10222000524609E0954909EB490001EB8000F3E7CC
:10223000BAF1000F12D0002221465846FFF7BEFF28
:102240007006641C060EE4B2A4EB0800604507D1DA
:102250000BF10100444600F0FF0B05E00122EBE723
:102260007F1CFFB2082FD9D36D1CEDB26545CDD3CD
:10227000BDE8F08F0246012000E05043491EC9B27C
:10228000FBD270472DE9FF4F81B00026DDF838A062
:102290001D469346814634464FF001084FEA5A07DF
:1022A00027E0281B401EC1B20A20FFF7E3FFBBFB5B
:1022B000F0F00A21B0FBF1F201FB120026B9691E11
:1022C0008C4201DA48B101263030C2B207FB0490DB
:1022D000C0B25346CDF8008006E007FB0490C0B2C0
:1022E00053462022CDF800800299FFF782FF641C3C
:1022F000E4B2AC42D5D305B0BAE7F8B516460D4600
:102300000446012714E07A2C02D900241035EDB2DE
:102310003A2D03D900242546FFF72CFF0097327889
:102320000C2329462046FFF764FF0834E4B2761CEC
:1023300030780028E7D1F8BD7CB501210820FEF7F0
:1023400030FC01258DF804500024E0208DF8064073
:102350004B4E00908DF805408DF807406946304699
:10236000FEF706FA1020009069463046FEF700FAA4
:102370003F48C0F89442C0F894520021AE20FFF7C5
:1023800081FE0021D520FFF77DFE00215020FFF7C0
:1023900079FE0021A820FFF775FE00213F20FFF7FE
:1023A00071FE0021D320FFF76DFE00210846FFF7E4
:1023B00069FE00214020FFF765FE00218D20FFF718
:1023C00061FE00211420FFF75DFE00212020FFF7B1
:1023D00059FE00210220FFF755FE0021A120FFF742
:1023E00051FE0021C020FFF74DFE0021DA20FFF74B
:1023F00049FE00211220FFF745FE00218120FFF752
:1024000041FE0021EF20FFF73DFE0021D920FFF71C
:1024100039FE0021F120FFF735FE0021DB20FFF718
:1024200031FE00213020FFF72DFE0021A420FFF710
:1024300029FE0021A620FFF725FE0021AF20FFF78F
:1024400021FEFFF797FE7CBD10B50446B031C8B23F
:102450000021FFF717FE102040EA14100021FFF7BB
:1024600011FE04F00F00BDE8104000210AE6000054
:1024700000804142080D00205A2C0008E627000881
:10248000000C02402DE9F0439C4617460C4681465D
:102490000026DDF81C8011E021464846FFF7D4FFF6
:1024A0004D4607E018F806000121761CFFF7EAFD0B
:1024B0006D1CEDB2BD42F5D3641CE4B26445EBD3B0
:1024C000BDE8F08370B500231C4672B107E0C55C1F
:1024D000CE5CB54201D1641CE4B25B1CDBB293421A
:1024E000F5D3944201D1012070BD002070BD2DE9CB
:1024F000F35F614E044690F800C071880222491CC7
:1025000001205C4B00275D4D4FF00A094FF0070B8F
:102510004FF0030A89B2BCF10B0F14D2DFE80CF0C4
:102520000643698F8F21340C141AA70022702F7371
:102530002870EF7252A004E0207028732870EF72A8
:1025400051A000F0C7F88FE020702A732870EF7256
:1025500052A0F6E7207085F80CA02870EF7255A005
:10256000EFE784F800901846FEF7F2FB3220FFF701
:10257000C5FA0198FFF720F83220FFF7BFFA4FA005
:1025800000F0A8F84EA0DCE784F800901846FEF7AB
:10259000DFFB3220FFF7B2FA0198FFF70DF8322087
:1025A000FFF7ACFA60E07180642902D1778084F88B
:1025B00000A02878022857D12F487780EA7A691C32
:1025C000001DFFF77FFF012801D004204BE0287B8E
:1025D000012804D0022804D0032804D044E00820B5
:1025E00041E009203FE00520384920703220088072
:1025F0003AE07180642912D11846FEF7A9FB322017
:10260000FFF77CFA4FF41650FEF7D6FF3220FFF7A3
:1026100075FA2AA000F05EF8778084F800B0287878
:102620002946022820D11448CA7A691C001DFFF7E8
:1026300049FF012818D1778084F8009014E0287BA6
:10264000012804D00228CAD00328CAD00CE0E97AB5
:10265000062041B13178491CC9B23170032902D03A
:1026600084F800B000E020700020BDE8FC9F01204D
:10267000FBE70000004C004066000020081100202D
:1026800041540D0A0000000041542B4E414D455766
:102690004845454C5445430D0A00000041542B4E1B
:1026A000414D42574845454C5445432D494F530DE4
:1026B0000A00000041542B42415544410D0A0000DC
:1026C00041542B52455345540D0A0000040000208C
:1026D000704700000FB4044910B503AA029800F037
:1026E00009F810BC5DF814FB3800002070477047F3
:1026F00070477047074B70B50D467B4400F011F8EA
:102700000446284600F020F810B14FF0FF3070BDAD
:10271000204670BD99EAFFFF01694A1C02610878F2
:10272000704700B58FB0CDE9013100210591054911
:102730007944CDE903101146684600F02EF80FB039
:1027400000BD0000E5FFFFFF007B00F08000704748
:10275000754600F03FF8AE4605006946534620F046
:102760000700854618B020B5FDF72CFFBDE82040D6
:102770004FF000064FF000074FF000084FF0000B3D
:1027800021F00701AC46ACE8C009ACE8C009ACE8F0
:10279000C009ACE8C0098D4670472DE9F0410646F6
:1027A0000024D6E90170F5688046304603E04146D2
:1027B000B847641C3046A8470028F8D12046BDE839
:1027C000F08110B50446AFF300802046BDE810400C
:1027D000FDF723BD00487047181100204FF04070EE
:1027E000E1EE100A70470000000000000000000049
:1027F0000000000000003F4000000000000000005A
:102800003000400030004000000009000BC03D00D7
:102810000BC03D00090018C024407FE022403180F9
:102820000000180024C01B000D803240018003808E
:102830001C4027401C800740004010006000000042
:102840000000000000000000000000001F80204089
:1028500040200000402020401F80000000000900B0
:1028600006001F80060009000000040004003F80ED
:1028700004000400000000100060000000000000E0
:102880000000040004000400040004000000000034
:1028900000400000000000000000002001C0060011
:1028A0003800400000001F802040204020401F8052
:1028B0000000000010403FC000400000000018C0B1
:1028C0002140224024401840000010802040244035
:1028D00024401B80000002000D0011003FC0014099
:1028E00000003C80244024402440238000001F80BE
:1028F000244024403440038000003000200027C0E2
:102900003800200000001B802440244024401B800D
:1029100000001C0022C0224022401F800000000056
:1029200000000840000000000000000000000460FB
:10293000000000000000000004000A0011002080D8
:1029400040400900090009000900090000000000DA
:102950004040208011000A0004001800200023409D
:102960002400180000001F802040274029401F40FD
:102970000000004007C039000F0001C000402040A7
:102980003FC0244024401B8000001F802040204086
:1029900020403080000020403FC0204020401F8069
:1029A000000020403FC024402E4030C000002040A6
:1029B0003FC024402E00300000000F001080204057
:1029C00022403380020020403FC0040004003FC08A
:1029D0002040204020403FC02040204000000060B8
:1029E000202020203FC02000200020403FC0244065
:1029F0000B0030C0204020403FC02040004000403D
:102A000000C03FC03C0003C03C003FC0000020406D
:102A10003FC00C4023003FC020001F8020402040CA
:102A200020401F80000020403FC0244024001800A8
:102A300000001F802140214020E01FA00000204016
:102A40003FC02440260019C0004018C02440244044
:102A5000224031800000300020403FC02040300044
:102A6000000020003F80004000403F802000200008
:102A70003E0001C0070038002000380007C03C00BD
:102A800007C038000000204039C0060039C020408F
:102A900000002000384007C03840200000003040CF
:102AA00021C02640384020C00000000000007FE028
:102AB000402040200000000070000C000380004017
:102AC00000000000402040207FE0000000000000E7
:102AD0002000400020000000000000100010001046
:102AE0000010001000100000000040000000000076
:102AF0000000000002800540054003C000402000A7
:102B00003FC00440044003800000000003800440F4
:102B100004400640000000000380044024403FC001
:102B20000040000003800540054003400000000015
:102B300004401FC0244024402000000002E0055053
:102B400005500650042020403FC00440040003C04C
:102B500000400000044027C00040000000000010BA
:102B60000010041027E00000000020403FC001409A
:102B7000070004C00440204020403FC00040004007
:102B8000000007C0040007C0040003C000000440A8
:102B900007C00440040003C000400000038004405C
:102BA000044003800000041007F004500440038038
:102BB0000000000003800440045007F000100440AF
:102BC00007C0024004000400000000000640054069
:102BD000054004C00000000004001F8004400040C5
:102BE0000000040007800040044007C000400400CB
:102BF000070004C0018006000400060001C00700B1
:102C000001C006000000044006C0010006C00440E8
:102C100000000410071004E001800600040000001A
:102C2000044005C00640044000000000000004000D
:102C30007BE040200000000000000000FFF00000EA
:102C40000000000040207BE0040000000000400085
:102C50008000400020002000400000000000000034
:102C60000000000000000000000000000000000064
:102C70001FCC000C00000000000000000800300025
:102C800060000800300060000000022003FC1E20ED
:102C9000022003FC1E200220000000000E18110478
:102CA0003FFF10840C78000000000F0010840F38E4
:102CB00000C0077818840078000000780F8410C4E2
:102CC00011240E9800E400840008080068007000D9
:102CD00000000000000000000000000000000000F4
:102CE00007E0181820044002000000004002200401
:102CF000181807E0000000000000024002400180B8
:102D00000FF001800240024000000080008000803F
:102D10000FF800800080008000000001000D000E10
:102D200000000000000000000000000000800080A3
:102D3000008000800080008000800000000C000CFB
:102D40000000000000000000000000000006001865
:102D500000600180060018002000000007F008084D
:102D600010041004080807F000000000080408041C
:102D70001FFC000400040000000000000E0C1014F2
:102D80001024104411840E0C000000000C181004D4
:102D90001104110412880C700000000000E00320F0
:102DA000042408241FFC0024000000001F98108445
:102DB00011041104108810700000000007F008884A
:102DC0001104110418880070000000001C0010009D
:102DD00010FC13001C001000000000000E3811440D
:102DE0001084108411440E38000000000700088C85
:102DF00010441044088807F00000000000000000A4
:102E0000030C030C000000000000000000000001A3
:102E100001060000000000000000000000800140EA
:102E200002200410080810040000022002200220E2
:102E300002200220022002200000000010040808E6
:102E40000410022001400080000000000E0012006B
:102E5000100C106C10800F00000003E00C1813E43D
:102E6000142417C4082807D000000004003C03C441
:102E70001C40074000E4001C000410041FFC110467
:102E8000110411040E880070000003E00C181004F7
:102E90001004100410081C10000010041FFC100483
:102EA00010041004080807F0000010041FFC1104AF
:102EB000110417C410040818000010041FFC1104AA
:102EC000110017C010000800000003E00C181004E7
:102ED000100410441C780040000010041FFC1084F3
:102EE0000080008010841FFC1004000010041004F7
:102EF0001FFC10041004000000000003000110017A
:102F000010011FFE10001000000010041FFC11042F
:102F100003801464181C1004000010041FFC10042B
:102F2000000400040004000C000010041FFC1F003B
:102F300000FC1F001FFC1004000010041FFC0C0408
:102F4000030000E010181FFC100007F00808100430
:102F500010041004080807F0000010041FFC10847F
:102F60001080108010800F00000007F00818102457
:102F70001024101C080A07F2000010041FFC1104A2
:102F8000110011C011300E0C000400000E1C1104C1
:102F90001084108410441C38000018001000100425
:102FA0001FFC100410001800000010001FF810048F
:102FB0000004000410041FF8100010001E0011E0AF
:102FC000001C007013801C0010001FC0103C00E0AB
:102FD0001F0000E0103C1FC000001004180C163445
:102FE00001C001C01634180C100410001C0013049A
:102FF00000FC13041C00100000000804101C1064E6
:10300000108413041C0410180000000000000000CD
:103010007FFE4002400240020000000030000C0031
:1030200003800060001C000300000000400240021A
:1030300040027FFE000000000000000000002000B1
:10304000400040004000200000000001000100019D
:1030500000010001000100010001000040004000EB
:103060002000000000000000000000000098012483
:1030700001440144014400FC000410001FFC0088CE
:103080000104010400880070000000000070008846
:1030900001040104010400880000000000700088A1
:1030A0000104010411081FFC0004000000F80144A1
:1030B00001440144014400C800000000010401046F
:1030C0000FFC1104110411001800000000D60129A2
:1030D0000129012901C90106000010041FFC008418
:1030E00001000100010400FC0004000001041904B7
:1030F00019FC0004000400000000000000030001AF
:103100000101190119FE0000000010041FFC002439
:10311000004001B4010C0104000000001004100480
:103120001FFC0004000400000000010401FC010475
:10313000010001FC0104010000FC010401FC008409
:1031400001000100010400FC0004000000F801047B
:1031500001040104010400F80000010101FF0085E1
:103160000104010400880070000000000070008865
:1031700001040104010501FF00010104010401FC37
:1031800000840104010001800000000000CC012443
:103190000124012401240198000000000100010025
:1031A00007F80104010400000000010001F8000418
:1031B00000040004010801FC00040100018001700A
:1031C000000C001001600180010001F0010C0030D2
:1031D00001C00030010C01F0010000000104018C6D
:1031E00000740170018C0104000001010181017172
:1031F000000E001801600180010000000184010C34
:10320000013401440184010C0000000000000000B2
:10321000000001003EFC40024002000000000000EF
:103220000000FFFF0000000000000000400240021C
:103230003EFC010000000000000000006000800073
:1032400080004000400020002000000000000080BE
:10325000F0FC7CFCF08000000000E0FCFCFCF8C00E
:10326000000000000000FCFCFC0000000000001C4E
:10327000FCFCFCFC000000FCFCFC1C1C1C1C1C1CC2
:103280001C1C000000FCFCFC1C1C1C1C1C1C1C1C32
:10329000000000FCFCFC1C1C1C1C1C1C1C1C00005A
:1032A0000000FCFCFC000000000000000000FCFC32
:1032B000FC1C1C1C1C1C1C1C1C000000F0F8FC1C32
:1032C0001C1C1C1C1C1C7C787000000000E0FCFF17
:1032D0001F0300031FFFFCE0F8FF3F0700010F7F03
:1032E000FEF080000000FFFFFF0E0E0E0E0E0E8E91
:1032F000FFFFFFFF000000FFFFFF8E8E8E8E8E8E81
:103300008680000000FFFFFF8E8E8E8E8E8E868060
:10331000000000FFFFFF0000000000808080808030
:103320008080FFFFFF808080808080000000FFFFA2
:10333000FF8E8E8E8E8E8E8E80000000FFFFFF80AF
:10334000808080808080E0E0E000000003030300D4
:103350000000000000000303030100000000000063
:103360000303030000000303030000000000000348
:103370000303030300000003030303030303030326
:103380000303000000030303030303030303030316
:103390000000000303030000000000030303030315
:1033A00003030303030303030303030000000303F6
:1033B00003030303030303030300000000010303EB
:1033C000030303030303030100000000EC330008C0
:1033D0000000002070000000C40100085C340008F8
:1033E0007000002008170000E00100080000000045
:1033F000F4010000000000000000000000000000D8
:10340000007A030A0000000000000000010203042B
:10341000060708090000000001020304010203047A
:10342000060708090000000000000000000000007E
:10343000000000000000000000000000000000008C
:103440000000000000000108000000000000000073
:0C3450000000000000002B4F4B0D0A0094
:040000050800018965
:00000001FF
